:100000000C9462000C948A000C948A000C948A0070
:100010000C948A000C948A000C948A000C948A0038
:100020000C948A000C948A000C948A000C948A0028
:100030000C948A000C948A000C948A000C948A0018
:100040000C94D0060C948A000C9440070C941A0768
:100050000C948A000C948A000C948A000C948A00F8
:100060000C948A000C948A000000000024002700F1
:100070002A0000000000250028002B0000000000DE
:1000800023002600290004040404040404040202DA
:100090000202020203030303030301020408102007
:1000A0004080010204081020010204081020000012
:1000B0000008000201000003040700000000000027
:1000C0000000720711241FBECFEFD8E0DEBFCDBF06
:1000D00012E0A0E0B1E0EAE9F4E102C005900D927F
:1000E000A239B107D9F723E0A2E9B2E001C01D921D
:1000F000AC34B207E1F710E0C2E6D0E004C02197CB
:10010000FE010E94450AC136D107C9F70E94A9071E
:100110000C944B0A0C9400008CBD9DBD0895833057
:1001200081F028F4813099F08230A9F00895873069
:10013000A9F08830C9F08430B1F4809180008F7DBF
:1001400003C0809180008F7780938000089584B5EC
:100150008F7784BD089584B58F7DFBCF8091B000EB
:100160008F778093B00008958091B0008F7DF9CF94
:10017000CF93DF93282F30E0F901E255FF4F8491B0
:10018000F901E656FF4FD491F901EA57FF4FC491A8
:10019000CC23A1F081110E948F00EC2FF0E0EE0F34
:1001A000FF1FE458FF4FA591B491EC91ED2381E03E
:1001B00090E009F480E0DF91CF91089580E090E035
:1001C000FACF1F93CF93DF93282F30E0F901E25548
:1001D000FF4F8491F901E656FF4FD491F901EA5798
:1001E000FF4FC491CC23A9F0162F81110E948F00DC
:1001F000EC2FF0E0EE0FFF1FEE58FF4FA591B491EA
:100200008FB7F894EC91111108C0D095DE23DC93E0
:100210008FBFDF91CF911F910895DE2BF8CFCF9341
:10022000DF9390E0FC01E656FF4F24918A579F4FE1
:10023000FC0184918823C9F090E0880F991FFC018C
:10024000E859FF4FA591B491FC01EE58FF4FC591BD
:10025000D49161110DC09FB7F8948C9120958223A1
:100260008C938881282328839FBFDF91CF910895A5
:10027000623051F49FB7F8943C91822F809583238C
:100280008C93E8812E2BEFCF8FB7F894EC912E2B27
:100290002C938FBFEACF3FB7F8948091970290914B
:1002A0009802A0919902B0919A0226B5A89B05C028
:1002B0002F3F19F00196A11DB11D3FBFBA2FA92FE5
:1002C000982F8827BC01CD01620F711D811D911DE2
:1002D00042E0660F771F881F991F4A95D1F708954E
:1002E0008F929F92AF92BF92CF92DF92EF92FF9246
:1002F0000E944B014B015C0182E3C82ED12CE12C02
:10030000F12C0E944B01681979098A099B09683E02
:10031000734081059105A8F321E0C21AD108E108D4
:10032000F10888EE880E83E0981EA11CB11CC11450
:10033000D104E104F10429F7FF90EF90DF90CF9012
:10034000BF90AF909F908F900895AF92BF92CF9241
:10035000DF92EF92FF920F931F93CF93DF936C0185
:100360007B018B01040F151FEB015E01AE18BF0866
:10037000C017D10759F06991D601ED91FC91019018
:10038000F081E02DC6010995892B79F7C501DF9130
:10039000CF911F910F91FF90EF90DF90CF90BF9082
:1003A000AF900895FC01538D448D252F30E0842FAC
:1003B00090E0821B930B541710F0CF96089501978D
:1003C0000895FC01918D828D981761F0A28DAE0F7A
:1003D000BF2FB11D5D968C91928D9F5F9F73928F01
:1003E00090E008958FEF9FEF0895FC01918D828D2D
:1003F000981731F0828DE80FF11D858D90E00895FA
:100400008FEF9FEF0895FC01918D228D892F90E051
:10041000805C9F4F821B91098F73992708958FE904
:1004200092E00E94030221E0892B09F420E0822F50
:10043000089580E090E0892B29F00E940F0281113D
:100440000C9400000895FC01A48DA80FB92FB11DD4
:10045000A35ABF4F2C91848D90E001968F739927FA
:10046000848FA689B7892C93A089B1898C918370D8
:1004700080648C93938D848D981306C00288F389D1
:10048000E02D80818F7D80830895EF92FF920F93FE
:100490001F93CF93DF93EC0181E0888F9B8D8C8D30
:1004A00098131AC0E889F989808185FF15C09FB724
:1004B000F894EE89FF896083E889F98980818370E7
:1004C000806480839FBF81E090E0DF91CF911F9196
:1004D0000F91FF90EF900895F62E0B8D10E00F5FB7
:1004E0001F4F0F731127E02E8C8D8E110CC00FB68D
:1004F00007FCFACFE889F989808185FFF5CFCE0125
:100500000E942302F1CFEB8DEC0FFD2FF11DE35A7A
:10051000FF4FF0829FB7F8940B8FEA89FB898081A7
:100520008062CFCFCF93DF93EC01888D8823B9F021
:10053000AA89BB89E889F9898C9185FD03C08081EE
:1005400086FD0DC00FB607FCF7CF8C9185FFF2CF6B
:10055000808185FFEDCFCE010E942302E9CFDF919C
:10056000CF910895BC016E5F7F4FDC01ED91FC914E
:100570000190F081E02D40E0099591E0811190E03B
:10058000892F089508958EBD00000DB407FEFDCF9C
:100590008EB50895DF92EF92FF920F931F93CF9342
:1005A000DF937C01062FD42E152F80E590E00E946A
:1005B0008C0060E0F70186850E94E10082E10E94E4
:1005C000C302CD2DD12F0C0F1D2F111DC017D10728
:1005D00021F089910E94C302F9CF61E0F70186857D
:1005E000DF91CF911F910F91FF90EF90DF900C94CE
:1005F000E1001F93CF93DF93EC01162F80E590E08D
:100600000E948C0060E08E850E94E100812F80684E
:100610000E94C30280E00E94C302182F61E08E8511
:100620000E94E100812FDF91CF911F9108950F93D8
:100630001F93CF93DF93EC01062F142F80E590E0FA
:100640000E948C0060E08E850E94E100802F0E9455
:10065000C302812F0E94C30261E08E85DF91CF919A
:100660001F910F910C94E100CF92DF92EF92FF92D5
:100670000F931F93CF93DF93EC016B01F42E89014D
:1006800040E062E00E94170344E06AE0CE010E946D
:10069000170340E864E1CE010E941703A6016F2D05
:1006A000CE010E94CA0243E062E0CE010E9417031D
:1006B0008FB7F894C0909B02D0909C02E0909D026E
:1006C000F0909E028FBF89E5C80ED11CE11CF11C81
:1006D0006AE0CE010E94F90282FF1BC040E062E0A6
:1006E000CE010E94170364E4CE010E94F902F801D2
:1006F000808362E4CE010E94F902F801818380E0E8
:10070000DF91CF911F910F91FF90EF90DF90CF90ED
:1007100008952FB7F89480919B0290919C02A0912C
:100720009D02B0919E022FBF8C159D05AE05BF05A1
:1007300078F283E0E5CF2F923F924F925F926F92D3
:100740007F928F929F92AF92CF92DF92EF92FF9221
:100750000F931F93CF93DF9300D0CDB7DEB74C013B
:100760002B01D42E390180E0E114F10411F0F701DE
:1007700080813C2C329490EF3922380E40E062E0C8
:10078000C4010E9417034FE768E0C4010E941703E9
:1007900040E864E1C4010E941703A2016D2DC40169
:1007A0000E94CA02432D6AE1C4010E9417034CE073
:1007B00062E0C4010E9417036AE1C4010E94F902C9
:1007C000482F40686AE1C4010E9417038FB7F8946C
:1007D00020909B0230909C0240909D0250909E027F
:1007E0008FBFF4E22F0E311C411C511C68E0C40184
:1007F0000E94F902982F907309F0C0C080FF15C0C5
:1008000083E00F900F90DF91CF911F910F91FF9098
:10081000EF90DF90CF90AF909F908F907F906F90F0
:100820005F904F903F902F9008952FB7F89480914C
:100830009B0290919C02A0919D02B0919E022FBFBD
:1008400082159305A405B50588F2DACF6114710409
:1008500009F469C00115110509F465C064E1C4011A
:100860000E94F902382EF8018081831508F480C0B7
:1008700030823320E1F180E590E00E948C0060E05E
:10088000F40186850E94E1003A9482E90E94C30245
:10089000CC20B1F08FEF90E09C0102C0220F331FFB
:1008A000CA94E2F7690182E90E94C3029C2D9095E7
:1008B000F301208192238C21982B9083CC24C39424
:1008C00023014C0C511CC31440F482E90E94C30262
:1008D000F20181932F01C394F6CF80E00E94C302FE
:1008E000F201808361E0F40186850E94E10068E105
:1008F000C4010E94F9028770E114F10411F0F701BC
:10090000808323FC37C061147104B1F10115110516
:1009100099F1AA2089F1F8014081413031F4843005
:1009200029F58FEF6ECF80E0ECCF4230F8F08111E7
:100930001DC042509E012F5F3F4FB301C4010E9472
:10094000340381115ECFF8019081690E711CF301AF
:10095000329720819981291309C0F1E06F1A71083B
:10096000F30120819A81291709F44BCF87E049CF01
:1009700084E047CF82E045CF80E043CF6CE0C40104
:100980000E94F902282E837109F460CF81E039CFEB
:100990008F929F92AF92CF92EF92FF920F931F93FD
:1009A000CF93DF9300D000D01F92CDB7DEB74C01BC
:1009B00082E08D8340E064E2C4010E94170340E0BE
:1009C00066E2C4010E94170346E268E4C4010E9483
:1009D000170386E28B838D818230D8F16CE1C401EC
:1009E0000E94F902482F4F776CE1C4010E9417035F
:1009F00087E08C83A12CC12CCE0104967C018E0152
:100A00000B5F1F4F9E012F5F3F4F41E0BE016D5FA7
:100A10007F4FC4010E949B03982F811117C08D81C5
:100A20008230B9F48C81811114C081E00F900F9055
:100A30000F900F900F90DF91CF911F910F91FF902A
:100A4000EF90CF90AF909F908F90089581E092307B
:100A500069F380E0EBCF2F923F924F925F926F92BB
:100A60007F928F929F92AF92BF92CF92DF92EF923E
:100A7000FF920F931F93CF93DF93CDB7DEB72D97E0
:100A80000FB6F894DEBF0FBECDBF16E0413508F0BB
:100A90004AC1342E3B014C016CE10E94F902482FFF
:100AA0004F776CE1C4010E94170383E989833320E7
:100AB00029F081E0F3019081953008F480E0222450
:100AC0002394B12C9B2D990F990F990FD32CD91AE0
:100AD000D7FCD12C32E0882319F098E89B8333E0CF
:100AE00021E09D2D977009F420E09D2D9595959519
:100AF0009595290FC9F094E0811193E0291708F426
:100B0000922FEB2DF0E03196E60DF71D232F41914A
:100B1000A1E0B0E0AC0FBD1FA20FB11D4C932F5F41
:100B2000422F431B491798F3882311F0F8E0DF0E9A
:100B30008FE18D150CF082C090E79A838B819C81A8
:100B400089279D8189279E8189278F839E01285F20
:100B50003F4F47E0BE016F5F7F4FC4010E943403E7
:100B6000182F8111E0C01A86E3E0EB87DC86CE0106
:100B700007962C0199E09D87CA844C2D4295407FB1
:100B80004C0D6AE1C4010E941703A12CCE010A9604
:100B90007C018E01055F1F4F92014D85BE016F5F85
:100BA0007F4FC4010E949B03182F823009F065C05B
:100BB0006CE1C4010E94F90285FDB5C08F7109F492
:100BC00080E2282F30E04D2DDD0C550B42175307E6
:100BD0000CF09DC0D82EE82FE595E595E595EF5FE3
:100BE000982F977081E009F480E0E80F81E090E0B1
:100BF0008C0F9D1F8E0F911DFC0121503109277014
:100C0000332781E090E002C0880F991F2A95E2F710
:100C10009C018081822B80838BCF85E9898333205F
:100C200031F081E0F3019081983008F04BCF80E003
:100C300049CF87E9898326E0B22EF9CF9D2D9770A1
:100C40009A878D2D8595859585958E5F282F229580
:100C5000207F290F2A8321E0911101C020E0280F75
:100C60002D8744244394512C4C0E5D1E480E511C7C
:100C7000E9E0E81BEB87DC867FCF811154C080E27E
:100C8000D82E9C8590320CF457CF8B81883809F090
:100C900040C083E093E0EB2DF0E03196E60DF71DC8
:100CA000980FA1E0B0E0AC0FBD1FA80FB11D2C91B3
:100CB00021938F5F8913F5CFBB84E3E0BE124DC053
:100CC0008A8581114AC09E012D5F3F4F41E0B201EC
:100CD000C4010E943403182F811125C09B81F201A9
:100CE000818198133CC09C818281981338C0808197
:100CF00082FF12C02394F2E02F1609F48ECF83E016
:100D0000281609F496CF91E0291609F4CECE15E005
:100D10000AC082E094E0BFCFF3018387822D880F61
:100D2000820D8F5F8083812F2D960FB6F894DEBFE2
:100D30000FBECDBFDF91CF911F910F91FF90EF902C
:100D4000DF90CF90BF90AF909F908F907F906F90EB
:100D50005F904F903F902F90089511E0E4CF17E0FF
:100D6000E2CFFC0101900020E9F73197AF01481B69
:100D7000590BBC018FE992E00C94A501CF93DF934E
:100D8000D0E0C0E0009719F00E94B106EC018EE1BE
:100D900091E00E94B1068C0F9D1FDF91CF910895C5
:100DA0001F920F920FB60F9211242F933F938F93A0
:100DB0009F93AF93BF9380919B0290919C02A091CF
:100DC0009D02B0919E023091960223E0230F2D37B1
:100DD00058F50196A11DB11D2093960280939B02A8
:100DE00090939C02A0939D02B0939E0280919702E3
:100DF00090919802A0919902B0919A020196A11D3A
:100E0000B11D8093970290939802A0939902B0939A
:100E10009A02BF91AF919F918F913F912F910F9027
:100E20000FBE0F901F90189526E8230F0296A11D64
:100E3000B11DD2CF1F920F920FB60F9211242F9394
:100E40003F934F935F936F937F938F939F93AF9352
:100E5000BF93EF93FF938FE992E00E942302FF91EB
:100E6000EF91BF91AF919F918F917F916F915F9122
:100E70004F913F912F910F900FBE0F901F9018959B
:100E80001F920F920FB60F9211242F938F939F935F
:100E9000EF93FF93E091AF02F091B0028081E09177
:100EA000B502F091B60282FD1BC090818091B8021C
:100EB0008F5F8F732091B902821741F0E091B802E1
:100EC000F0E0E156FD4F958F8093B802FF91EF91CE
:100ED0009F918F912F910F900FBE0F901F9018959B
:100EE0008081F4CFEFE9F2E01382128288EE93E082
:100EF000A0E0B0E084839583A683B78386E091E089
:100F00009183808385EC90E09587848784EC90E0E2
:100F10009787868780EC90E0918B808B81EC90E0C6
:100F2000938B828B82EC90E0958B848B86EC90E0A7
:100F3000978B868B118E128E138E148EECE3F3E05A
:100F400088E191E0918380838AE0868789E08787C2
:100F50000895CF93DF93CDB7DEB7A1970FB6F8947E
:100F6000DEBF0FBECDBF789484B5826084BD84B5EA
:100F7000816084BD85B5826085BD85B5816085BD94
:100F800080916E00816080936E001092810080914C
:100F900081008260809381008091810081608093D4
:100FA0008100809180008160809380008091B100F9
:100FB00084608093B1008091B00081608093B00024
:100FC00080917A00846080937A0080917A008260B8
:100FD00080937A0080917A00816080937A0080917A
:100FE0007A00806880937A001092C10062E082E00B
:100FF0000E940F0162E083E00E940F0161E08DE03A
:101000000E940F0161E087E00E940F0161E088E02B
:101010000E940F0161E086E00E940F0161E085E01F
:101020000E940F0160E08DE00E94E100E091AF02BC
:10103000F091B00282E08083E091AB02F091AC02CB
:101040001082E091AD02F091AE028FEC808310929D
:10105000B702E091B302F091B40286E08083E091A0
:10106000B102F091B202808180618083E091B1028F
:10107000F091B202808188608083E091B102F091AA
:10108000B202808180688083E091B102F091B20267
:1010900080818F7D80831FB7F894809192028111A7
:1010A00027C0E0E9F0E08491E4EAF0E09491E82FD1
:1010B000F0E0EE0FFF1FE859FF4FA591B491EC91BE
:1010C000E92321F461E08AE00E94E10061E08AE026
:1010D0000E940F018CB580618CBD8CB580648CBD85
:1010E00061E08DE00E940F0161E08BE00E940F0142
:1010F000809192028F5F809392021FBF61E0809186
:101100004A030E940F0161E080914A030E94E100BE
:1011100080914B038F3F09F426C160E00E940F01CC
:1011200080914B030E94B800892B09F01CC161E03B
:1011300080914B030E940F0160E080914B030E945D
:10114000E10083E090E00197F1F761E080914B03CB
:101150000E94E1000E94700140E064E28CE393E0B1
:101160000E94170340E066E28CE393E00E941703BD
:1011700046E268E48CE393E00E94170340E864E5EC
:101180008CE393E00E94170349EA66E58CE393E061
:101190000E94170343E068E58CE393E00E94170385
:1011A00048EE6AE58CE393E00E94170340E46AE2AC
:1011B0008CE393E00E9417034DE362E28CE393E03B
:1011C0000E94170368E28CE393E00E94F902982FD3
:1011D0009370933039F0482F436068E28CE393E0DA
:1011E0000E9417038AE291E00E94BE066EE68CE33D
:1011F00093E00E94F902182F86E491E00E94B10664
:10120000C12ED12CF12CE12C19A2CE018196B7016F
:10121000A6014F7055276627772724E0F694E794B8
:10122000D794C7942A95D1F74A300CF0AFC0405DEF
:10123000FC014293CF01C114D104E104F10439F758
:10124000EF2B11F00E94B1068EE191E00E94B106F1
:101250008FEF810F8E3F08F49BC087E591E00E94DD
:10126000BE0686E791E00E94BE06BB24B39480E0F0
:10127000882E80E0982EDD24D39490E5792E8FE996
:1012800092E00E940302181619066CF48FE992E0AE
:101290000E94E101813309F088C0D092950280E379
:1012A00092E00E94BE068CE393E00E94C804811184
:1012B00084C01092930282E00E94B800182F80939D
:1012C000010183E00E94B800809300019091950293
:1012D000992391F09091940291110EC0113061F414
:1012E000813051F4809394028EE792E00E94BE0612
:1012F00061E085E00E94E1008091950281110EC0BD
:1013000080919402882351F01092940287E892E031
:101310000E94BE0660E085E00E94E1001091950207
:10132000612F86E00E94E100112309F4A9C061E069
:1013300080910101811160E087E00E94E10061E09D
:1013400080910001811160E088E00E94E100811439
:10135000910409F494CF0E940F02882309F48FCFDF
:101360000E9400008CCF4FE062E08CE393E00E948B
:10137000170313E00E94700162E08CE393E00E9487
:10138000F90284FFE9CE1150A9F7E6CE495C50CFAF
:101390008AEA91E0123909F466CF82ED91E01139C1
:1013A00009F461CF8AEF91E05ECF803309F07BCF03
:1013B000109295028FE492E074CF8CE393E00E9448
:1013C000B202882309F477CF40913F039091400304
:1013D000973119F481E0433C09F080E030914103FA
:1013E000303809F080E020914203243109F080E098
:1013F000923D19F491E04D3F09F090E03F3A21F41D
:10140000253011F4911102C08823B9F08091930224
:10141000811113C080919502D09293028B25809305
:10142000950280E792E00E94B106809195028823A0
:1014300021F183E291E00E94BE0679821A829E0128
:101440002D5F3F4F42E0BE016F5F7F4F8CE393E023
:101450000E94340381112FCFA12CC12CF12CE12C3F
:1014600010E000E030E020E044E0BE016F5F7F4F1D
:101470008CE393E00E949B031ECF81E291E0DBCFDF
:1014800060E087E00E94E1005ECFEE0FFF1F059055
:0A149000F491E02D0994F894FFCFC9
:10149A000101000000004502A501D20192020302E7
:1014AA00E101F501000000002B05C804B2020D0A93
:1014BA0000756E736368617266002D2D2D20524689
:1014CA0049442048617264776172652D4368656397
:1014DA006B202D2D2D00436869702D566572736936
:1014EA006F6E3A203078004645484C45523A204BB8
:1014FA006F6D6D756E696B6174696F6E7370726F03
:10150A00626C656D21005072756566652064696557
:10151A00205665726B6162656C756E67202862651C
:10152A00736F6E64657273204D4F53492C204D4979
:10153A00534F2C2053434B292E00537461747573F7
:10154A003A204D4652433532322076322E302065CB
:10155A00726B616E6E742E20416C6C6573204F4BFA
:10156A002E005374617475733A204D4652433532D6
:10157A00322076312E302065726B616E6E742E20A9
:10158A00416C6C6573204F4B2E00537461747573F4
:10159A003A20556E62656B616E6E7465722043689F
:1015AA0069702C206B6F656E6E746520616265725E
:1015BA002066756E6B74696F6E696572656E2E0052
:1015CA0053657269656C6C65722042656665686C04
:1015DA003A20416C61726D20534348415246005390
:1015EA00657269656C6C65722042656665686C3AFD
:1015FA0020416C61726D20554E534348415246005A
:10160A00416C61726D206A65747A743A2000414CAB
:10161A0041524D5F4F4E00414C41524D5F4F46463D
:02162A000000BE
:00000001FF
